{
  "contractName": "Transaction",
  "abi": [
    {
      "inputs": [],
      "stateMutability": "nonpayable",
      "type": "constructor"
    },
    {
      "inputs": [],
      "name": "owner",
      "outputs": [
        {
          "internalType": "address",
          "name": "",
          "type": "address"
        }
      ],
      "stateMutability": "view",
      "type": "function",
      "constant": true
    },
    {
      "stateMutability": "payable",
      "type": "receive",
      "payable": true
    },
    {
      "inputs": [
        {
          "internalType": "uint256",
          "name": "amount",
          "type": "uint256"
        }
      ],
      "name": "transferToOwner",
      "outputs": [],
      "stateMutability": "payable",
      "type": "function",
      "payable": true
    },
    {
      "inputs": [],
      "name": "contractBalance",
      "outputs": [
        {
          "internalType": "uint256",
          "name": "",
          "type": "uint256"
        }
      ],
      "stateMutability": "view",
      "type": "function",
      "constant": true
    }
  ],
  "bytecode": "0x608060405234801561001057600080fd5b50336000806101000a81548173ffffffffffffffffffffffffffffffffffffffff021916908373ffffffffffffffffffffffffffffffffffffffff160217905550610340806100606000396000f3fe6080604052600436106100385760003560e01c806387c1ed12146100445780638b7afe2e146100605780638da5cb5b1461008b5761003f565b3661003f57005b600080fd5b61005e600480360381019061005991906101a3565b6100b6565b005b34801561006c57600080fd5b50610075610162565b604051610082919061028b565b60405180910390f35b34801561009757600080fd5b506100a061016a565b6040516100ad9190610250565b60405180910390f35b8034146100f8576040517f08c379a00000000000000000000000000000000000000000000000000000000081526004016100ef9061026b565b60405180910390fd5b60008054906101000a900473ffffffffffffffffffffffffffffffffffffffff1673ffffffffffffffffffffffffffffffffffffffff166108fc829081150290604051600060405180830381858888f1935050505015801561015e573d6000803e3d6000fd5b5050565b600047905090565b60008054906101000a900473ffffffffffffffffffffffffffffffffffffffff1681565b60008135905061019d816102f3565b92915050565b6000602082840312156101b557600080fd5b60006101c38482850161018e565b91505092915050565b6101d5816102b7565b82525050565b60006101e8602e836102a6565b91507f53656e742076616c756520646f6573206e6f74206d617463682074686520737060008301527f6563696669656420616d6f756e740000000000000000000000000000000000006020830152604082019050919050565b61024a816102e9565b82525050565b600060208201905061026560008301846101cc565b92915050565b60006020820190508181036000830152610284816101db565b9050919050565b60006020820190506102a06000830184610241565b92915050565b600082825260208201905092915050565b60006102c2826102c9565b9050919050565b600073ffffffffffffffffffffffffffffffffffffffff82169050919050565b6000819050919050565b6102fc816102e9565b811461030757600080fd5b5056fea264697066735822122097c6110c70a31e96770e2bdf7a2e6a3a65794352d785bccdbfe8302fbc6f77ee64736f6c63430008000033",
  "immutableReferences": {},
  "source": "// SPDX-License-Identifier: MIT\r\npragma solidity ^0.8.0;\r\n\r\ncontract Transaction {\r\n    address public owner;\r\n\r\n    constructor() {\r\n        owner = msg.sender;\r\n    }\r\n\r\n    modifier onlyOwner() {\r\n        require(msg.sender == owner, \"Only the contract owner can call this function\");\r\n        _;\r\n    }\r\n\r\n    receive() external payable {\r\n        // This function is called when Ether is sent directly to the contract\r\n    }\r\n\r\n    function transferToOwner(uint256 amount) external payable {\r\n        require(msg.value == amount, \"Sent value does not match the specified amount\");\r\n        payable(owner).transfer(amount);\r\n    }\r\n\r\n    function contractBalance() external view returns (uint256) {\r\n        return address(this).balance;\r\n    }\r\n}\r\n",
  "sourcePath": "C:\\Users\\Satyam Raj\\Documents\\Blockchain\\NFT Marketplace\\nft-marketplace\\contracts\\Transaction.sol",
  "compiler": {
    "name": "solc",
    "version": "0.8.0+commit.c7dfd78e.Emscripten.clang"
  },
  "schemaVersion": "3.4.16",
  "updatedAt": "2023-12-25T11:33:38.869Z",
  "networkType": "ethereum",
  "devdoc": {
    "kind": "dev",
    "methods": {},
    "version": 1
  },
  "userdoc": {
    "kind": "user",
    "methods": {},
    "version": 1
  }
}